:100000005EC0000010C700003DC7000080C00000B7
:100010007EC000007CC000007AC000000C94411338
:1000200076C0000074C0000072C0000070C0000004
:100030006EC000006CC000006AC0000068C0000014
:1000400050C7000064C000000C94E60F0C9412101E
:100050005EC000005CC000005AC0000058C0000034
:1000600056C0000054C0000000000000240027001B
:100070002A0000000000250028002B0004040404CE
:100080000404040402020202020203030303030342
:10009000010204081020408001020408102001021F
:1000A00004081020000000080002010000030407FB
:1000B0000000000000000000020079104C11112423
:1000C0001FBECFEFD8E0DEBFCDBF11E0A0E0B1E0B2
:1000D000EAECFEE202C005900D92AC34B107D9F70C
:1000E00022E0ACE4B1E001C01D92A33CB207E1F70D
:1000F00010E0CFE5D0E004C02197FE010E9449172F
:10010000CD35D107C9F70E94AE140C94631778CF90
:10011000EF92FF920F931F93CF93DF93CDB7DEB78C
:100120002C970FB6F894DEBF0FBECDBF69837A83DC
:100130008B839C832D833E834F835887E986FA8681
:100140000B871C87898161E00E94D90989819A8186
:1001500001969C0189819A81AB81BC81A901BC0176
:10016000CD01BBD089819A8101962C960FB6F89467
:10017000DEBF0FBECDBFDF91CF911F910F91FF90DA
:10018000EF900895CF93DF9300D0CDB7DEB79A8379
:10019000898300000F900F90DF91CF910895CF9346
:1001A000DF9300D000D000D01F92CDB7DEB79B8385
:1001B0008A834C835D836E837F838A819B818823BE
:1001C00081F08A819B81815089836C817D818E81C0
:1001D0009F810E948A15DC01CB01BC0189810E94AC
:1001E0002009000027960FB6F894DEBF0FBECDBFE2
:1001F000DF91CF910895CF93DF9300D01F92CDB7B9
:10020000DEB79B838A838A819B81882379F0198258
:100210008A819B81815089838981882F90E0A0E029
:10022000B0E040E050E0BC01CD0157D000000F909D
:100230000F900F90DF91CF910895CF93DF93CDB7BB
:10024000DEB729970FB6F894DEBF0FBECDBF6E8321
:100250007F83888799871C821B821A8219821D825C
:100260008E819F81A885B985689412F8B695A79567
:10027000979587951694D1F79C838B838E81877091
:100280008D838B819C818B5A9E4FFC0140818D8197
:10029000282F30E081E090E002C0880F991F2A9556
:1002A000E2F78423882F90E09A83898389819A8159
:1002B000892B31F08E819F8101969A83898302C0B8
:1002C0001A82198289819A8129960FB6F894DEBF25
:1002D0000FBECDBFDF91CF910895CF93DF93CDB700
:1002E000DEB72A970FB6F894DEBF0FBECDBF6D8381
:1002F0007E838F8398875A8749871A8219821B8247
:100300001C828D819E81AF81B885689412F8B69564
:10031000A795979587951694D1F79A8389838D81B0
:1003200087708B838B81282F30E081E090E002C0C2
:10033000880F991F2A95E2F78C8389859A85892BE6
:1003400099F48C8180958C8389819A818B5A9E4FF8
:10035000FC0190818C81292F282389819A818B5AD5
:100360009E4FFC0120830FC089819A818B5A9E4F3A
:10037000FC0190818C81292F282B89819A818B5AAD
:100380009E4FFC01208300002A960FB6F894DEBF32
:100390000FBECDBFDF91CF910895CF93DF9300D0F3
:1003A00000D0CDB7DEB769837A838B839C83898144
:1003B0009A81AB81BC810E97A105B10528F4898192
:1003C000825F60E0F6D703C0898160E0F2D789815F
:1003D0009A8101969C0189819A81AB81BC81A90196
:1003E000BC01CD01C3D089819A8101960F900F90F5
:1003F0000F900F90DF91CF910895CF93DF93CDB7FA
:10040000DEB728970FB6F894DEBF0FBECDBF9A8334
:1004100089837C836B832D833E834F8358870000C1
:1004200028960FB6F894DEBF0FBECDBFDF91CF91F7
:100430000895CF93DF93CDB7DEB729970FB6F89421
:10044000DEBF0FBECDBF9D838C837F836E835987B4
:1004500048878C819D81882381F08C819D8181508A
:10046000898389819DD69B838A832A813B818E8162
:100470009F81FC013183208305C08E819F81FC0117
:1004800011821082000029960FB6F894DEBF0FBECD
:10049000CDBFDF91CF910895CF93DF9300D0CDB73B
:1004A000DEB79A83898300000F900F90DF91CF9180
:1004B0000895CF93DF9300D0CDB7DEB79A838983B9
:1004C00000000F900F90DF91CF910895CF93DF93AD
:1004D000CDB7DEB729970FB6F894DEBF0FBECDBFFC
:1004E0006E837F83888799871C821B821A82198278
:1004F0001D828E819F81A885B985689412F8B69572
:10050000A795979587951694D1F79C838B838E81B9
:1005100087708D838B819C81845B9E4FFC01408121
:100520008D81282F30E081E090E002C0880F991F74
:100530002A95E2F78423882F90E09A838983898122
:100540009A81892B31F08E819F8101969A838983CC
:1005500002C01A82198289819A8129960FB6F8946D
:10056000DEBF0FBECDBFDF91CF910895CF93DF9354
:10057000CDB7DEB72A970FB6F894DEBF0FBECDBF5A
:100580006D837E838F8398875A8749871A82198261
:100590001B821C828D819E81AF81B885689412F880
:1005A000B695A795979587951694D1F79A838983E1
:1005B0008D8187708B838B81282F30E081E090E0E4
:1005C00002C0880F991F2A95E2F78C8389859A8546
:1005D000892B99F48C8180958C8389819A81845BA5
:1005E0009E4FFC0190818C81292F282389819A813B
:1005F000845B9E4FFC0120830FC089819A81845BBC
:100600009E4FFC0190818C81292F282B89819A8112
:10061000845B9E4FFC01208300002A960FB6F8945D
:10062000DEBF0FBECDBFDF91CF910895CF93DF9393
:1006300000D000D0CDB7DEB79A8389837C836B83EB
:100640008B819C8122E3FC0120838B819C8123E3AD
:10065000FC0121838B819C8124E3FC0122838B811B
:100660009C8125E3FC0123838B819C8126E3FC0193
:1006700024838B819C8127E3FC0125838B819C81D2
:1006800028E3FC0126838B819C8129E3FC012783DD
:100690008B819C8121E3FC0120878B819C8120E35D
:1006A000FC0121878B819C8121E3FC0122878B81C6
:1006B0009C8121E3FC0123878B819C8121E3FC0148
:1006C00024878B819C8122E3FC0125878B819C817F
:1006D00021E3FC0126878B819C8123E3FC01278792
:1006E00089819A812B813C81FC0133872287898112
:1006F0009A81FC01168600000F900F900F900F90CA
:10070000DF91CF910895CF93DF9300D000D0CDB784
:10071000DEB79A8389837C836B838B819C8122E300
:10072000FC0120838B819C8123E3FC0121838B814D
:100730009C8124E3FC0122838B819C8125E3FC01C5
:1007400023838B819C8126E3FC0124838B819C8104
:1007500027E3FC0125838B819C8128E3FC01268310
:100760008B819C8129E3FC0127838B819C8121E380
:10077000FC0120878B819C8120E3FC0121878B81F8
:100780009C8121E3FC0122878B819C8121E3FC0178
:1007900023878B819C8121E3FC0124878B819C81B1
:1007A00022E3FC0125878B819C8121E3FC012687C4
:1007B0008B819C8123E3FC01278789819A812B818E
:1007C0003C81FC013783268329813A8186E090E0D1
:1007D000A0E0B0E0F90182879387A487B587000085
:1007E0000F900F900F900F90DF91CF910895CF93BE
:1007F000DF93CDB7DEB728970FB6F894DEBF0FBEF4
:10080000CDBF6D837E838F8398878D819E81AF81DD
:10081000B885BF7720E030E040E859E5BC01CD0164
:100820000E94861588230CF056C020E030E040E09E
:100830005FE36D817E818F8198850E94C016882339
:10084000BCF020E030E040E05FE36D817E818F818D
:1008500098850E940F15DC01CB01BC01CD010E94DF
:10086000F815DC01CB0189839A83AB83BC833BC041
:1008700020E030E040E05FEB6D817E818F819885E4
:100880000E94C016181684F420E030E0A9016D81A2
:100890007E818F8198850E94C416DC01CB018983FB
:1008A0009A83AB83BC831FC020E030E040E05FE36D
:1008B0006D817E818F8198850E940E15DC01CB01B0
:1008C000BC01CD010E947315DC01CB0189839A83A1
:1008D000AB83BC8308C08D819E81AF81B88589833D
:1008E0009A83AB83BC8389819A81AB81BC81BC0133
:1008F000CD0128960FB6F894DEBF0FBECDBFDF91B5
:10090000CF910895CF93DF9300D0CDB7DEB79A8310
:10091000898389819A81FC0181819281A381B4813B
:100920000197A105B10561F489819A81FC01858156
:10093000882331F089819A81FC0184859585B9DD10
:1009400000000F900F90DF91CF910895CF93DF9328
:1009500000D0CDB7DEB79A83898389819A81D2DFAF
:1009600000000F900F90DF91CF910895CF93DF9308
:1009700000D0CDB7DEB79A83898389819A81FC0143
:100980008081882341F489819A8121E0FC012083C0
:1009900089819A81DBDF00000F900F90DF91CF916A
:1009A0000895CF93DF9300D0CDB7DEB79A838983C4
:1009B00089819A81FC0181819281A381B48101970F
:1009C000A105B105A9F589819A81FC01858188235A
:1009D00079F189819A81FC0182859385A485B58509
:1009E000BC01CD012ADC9C0189819A81FC013187FF
:1009F000208789819A81FC018085918540E050E0C3
:100A0000BA01CDDB89819A81FC0182859385A48519
:100A1000B585BC01CD0111DC9C0189819A81FC0165
:100A20003187208789819A81FC0180859185E3DB6C
:100A300000000F900F90DF91CF910895CF93DF9337
:100A400000D0CDB7DEB79A83898389819A81A9DFE7
:100A500000000F900F90DF91CF910895CF93DF9317
:100A600000D0CDB7DEB79A83898389819A81FC0152
:100A70008081882341F489819A8121E0FC012083CF
:100A800089819A81DBDF00000F900F90DF91CF9179
:100A900008951F93CF93DF93CDB7DEB72E970FB690
:100AA000F894DEBF0FBECDBF809124029091250245
:100AB000A0912602B09127022091000130910101FE
:100AC0004091020150910301BC01CD010E948615A5
:100AD000882381F08091000190910101A091020191
:100AE000B09103018093240290932502A0932602E3
:100AF000B09327028EE192E09E838D8380912A023B
:100B000090912B02C9DC80912C02882F90E0A0E00C
:100B1000B0E0BC01CD01DADC9C018D819E81FC013D
:100B20003587248780912A0290912B029E01275FAE
:100B30003F4F43E050E0B9017CDC89859A859C8772
:100B40008B871E861D868DE292E098878F83809129
:100B5000370290913802A0913902B0913A02BC015B
:100B6000CD016BDB9C018F819885FC01318720874B
:100B70008091040190910501A0910601B0910701B7
:100B800020E030E04FE753E4BC01CD010E94861520
:100B900088236CF48091040190910501A0910601D5
:100BA000B091070189839A83AB83BC8308C080E03E
:100BB00090E0AFE7B3E489839A83AB83BC8311E011
:100BC00020E030E0A90169817A818B819C810E94BB
:100BD000C01618160CF010E081E08127882321F060
:100BE00019821A821B821C8289819A81AB81BC8105
:100BF000BC01CD01FCDDDC01CB01BC01CD010E94BB
:100C00008A15DC01CB01882F90E0A0E0B0E0BC01A8
:100C1000CD010E94BB159B01AC01809135029091E2
:100C20003602BA01A901BBDA00002E960FB6F8947D
:100C3000DEBF0FBECDBFDF91CF911F910895EF9220
:100C4000FF920F931F93CF93DF9300D000D000D07B
:100C5000CDB7DEB781EC92E0FC011182108243EA4D
:100C600050E060E070E08EE192E00E94531781E076
:100C700080931E0210921F021092200210922102F5
:100C80001092220280E090E0A0E8BFEB8093240263
:100C900090932502A0932602B093270210921E0281
:100CA00081E08093BF026BE372E08EE192E0BEDCF4
:100CB0008091000190910101A0910201B091030186
:100CC0008093240290932502A0932602B0932702DA
:100CD0008EE192E09A8389831092230281E090E072
:100CE000A0E0B0E080931F0290932002A093210225
:100CF000B093220280912C02882F90E0A0E0B0E017
:100D0000BC01CD014ADB9C0189819A81FC013587B8
:100D100024871C821B8280912A0290912B026B8176
:100D20007C8120E030E0A90168DB81E08093230230
:100D300081E080932D0210922E0210922F021092C9
:100D400030021092310210922D0281E08093C00295
:100D50006BE772E08DE292E0D6DC8DE292E09E835A
:100D60008D831092320281E090E0A0E0B0E08093A9
:100D70002E0290932F02A0933002B0933102809103
:100D8000370290913802A0913902B0913A02E12CD9
:100D9000F12C870120E030E0A901BC01CD01B8D9D8
:100DA0009C018D819E81FC013187208780913702D3
:100DB00090913802A0913902B0913A02BC01CD0164
:100DC0003CDA9C018D819E81FC01318720878091D6
:100DD000350290913602D6D981E08093320200002C
:100DE00026960FB6F894DEBF0FBECDBFDF91CF9130
:100DF0001F910F91FF90EF900895CF93DF93CDB7A0
:100E0000DEB78EE192E0B2DD8DE292E027DE0000F7
:100E1000DF91CF910895CF93DF93CDB7DEB7000078
:100E2000DF91CF9108951F920F920FB60F92112468
:100E30002F933F934F935F936F937F938F939F93E2
:100E4000AF93BF93EF93FF93CF93DF93CDB7DEB70D
:100E50008091080190910901FC0109950000DF9142
:100E6000CF91FF91EF91BF91AF919F918F917F9122
:100E70006F915F914F913F912F910F900FBE0F9007
:100E80001F9018951F920F920FB60F9211242F9357
:100E90003F934F935F936F937F938F939F93AF9302
:100EA000BF93EF93FF93CF93DF93CDB7DEB78091DE
:100EB0000A0190910B01FC0109950000DF91CF918F
:100EC000FF91EF91BF91AF919F918F917F916F9122
:100ED0005F914F913F912F910F900FBE0F901F90F8
:100EE00018951F920F920FB60F9211248F939F9314
:100EF000AF93BF93CF93DF93CDB7DEB72597DEBF18
:100F0000CDBF8091620190916301A0916401B09185
:100F1000650189839A83AB83BC83809166018D834D
:100F200089819A81AB81BC810196A11DB11D898304
:100F30009A83AB83BC838D818D5F8D838D818D374B
:100F400070F08D818D578D8389819A81AB81BC81B1
:100F50000196A11DB11D89839A83AB83BC838D81CA
:100F60008093660189819A81AB81BC818093620103
:100F700090936301A0936401B093650180915E0139
:100F800090915F01A0916001B09161010196A11D56
:100F9000B11D80935E0190935F01A0936001B093B7
:100FA000610100000F900F900F900F900F90DF9154
:100FB000CF91BF91AF919F918F910F900FBE0F90E6
:100FC0001F901895CF93DF9300D000D000D0CDB7FD
:100FD000DEB78FE590E0FC0180818D83F8948091ED
:100FE0005E0190915F01A0916001B09161018983E0
:100FF0009A83AB83BC8386E490E0FC0180818E837E
:1010000085E390E0FC018081882F90E08170992732
:10101000892B71F08E818F3F59F089819A81AB8144
:10102000BC810196A11DB11D89839A83AB83BC83CA
:101030008FE590E02D81FC01208389819A81AB812D
:10104000BC812227382F492F5A2F8E81882F90E07C
:10105000A0E0B0E0820F931FA41FB51F880F991F57
:10106000AA1FBB1F880F991FAA1FBB1FBC01CD0160
:1010700026960FB6F894DEBF0FBECDBFDF91CF919D
:101080000895CF93DF93CDB7DEB7789484E490E0F2
:10109000FC01208184E490E02260FC01208384E450
:1010A00090E0FC01208184E490E02160FC01208339
:1010B00085E490E0FC01208185E490E02260FC0161
:1010C000208385E490E0FC01208185E490E02160AC
:1010D000FC0120838EE690E0FC0120818EE690E00A
:1010E0002160FC01208381E890E0FC01108281E80E
:1010F00090E0FC01208181E890E02260FC012083E7
:1011000081E890E0FC01208181E890E02160FC0111
:10111000208380E890E0FC01208180E890E021605D
:10112000FC01208381EB90E0FC01208181EB90E0C9
:101130002460FC01208380EB90E0FC01208180EBA7
:1011400090E02160FC0120838AE790E0FC0120818F
:101150008AE790E02460FC0120838AE790E0FC01AC
:1011600020818AE790E02260FC0120838AE790E0FA
:10117000FC0120818AE790E02160FC0120838AE75E
:1011800090E0FC0120818AE790E02068FC01208348
:1011900081EC90E0FC0110820000DF91CF91089576
:1011A000CF93DF9300D01F92CDB7DEB78B838B81B7
:1011B0008E3018F08B818E508B8380910C01882F9C
:1011C00090E0382F36953695282F2295220F220F42
:1011D000207C922F8B818770292F282B8CE790E021
:1011E000FC0120838AE790E0FC0120818AE790E0FF
:1011F0002064FC01208300008AE790E0FC018081EC
:10120000882F90E080749927892BB1F788E790E0C8
:10121000FC018081898389E790E0FC0180818A83D9
:101220008A81882F90E0382F22278981882F90E0AB
:10123000822B932B0F900F900F90DF91CF910895F9
:10124000CF93DF9300D000D000D0CDB7DEB78C8332
:101250007E836D8361E08C81ACD08D819E81892BF2
:1012600021F460E08C81CFD19AC08D819E818F3F27
:10127000910521F461E08C81C6D191C08C81882FC9
:1012800090E08C559F4F9A83898389819A81FC01D4
:1012900084918B838B81882F90E08330910591F12D
:1012A0008430910534F48130910571F00297D9F0C2
:1012B00069C08730910509F447C08830910509F469
:1012C00052C0049781F15EC084E490E0FC0120816B
:1012D00084E490E02068FC01208387E490E02D8185
:1012E000FC0120835CC084E490E0FC01208184E464
:1012F00090E02062FC01208388E490E02D81FC01D5
:1013000020834DC080E890E0FC01208180E890E0DF
:101310002068FC01208388E890E02D813E81FC015B
:10132000318320833CC080E890E0FC01208180E88C
:1013300090E02062FC0120838AE890E02D813E81CC
:10134000FC01318320832BC080EB90E0FC012081E5
:1013500080EB90E02068FC01208383EB90E02D81FE
:10136000FC0120831CC080EB90E0FC01208180EB1D
:1013700090E02062FC01208384EB90E02D81FC0151
:1013800020830DC08D819E818038910524F460E01A
:101390008C8139D104C061E08C8135D100C000005E
:1013A00026960FB6F894DEBF0FBECDBFDF91CF916A
:1013B0000895CF93DF93CDB7DEB769970FB6F89452
:1013C000DEBF0FBECDBF888F698F888D882F90E0DC
:1013D00080579F4F9A83898389819A81FC018491E8
:1013E0008B838B818C83888D882F90E084589F4FCE
:1013F0009E838D838D819E81FC0184918F838F815B
:1014000088878885882309F495C08885882F90E08F
:10141000880F991F88599F4F9A87898789859A8550
:10142000FC0125913491CF013C872B879A878987CE
:101430008B859C859E878D878885882F90E0880F77
:10144000991F8E589F4F988B8F878F859889FC01A5
:1014500025913491CF013A8B298B988B8F8789897D
:101460009A899C8B8B8B898D882331F58FE590E051
:10147000FC0180818F8BF8948D859E85FC01808195
:10148000982F8C8180958923282F8D859E85FC013E
:1014900020838B899C89FC018081982F8C81809589
:1014A0008923282F8B899C89FC0120838FE590E07C
:1014B0002F89FC0120833FC0898D823021F58FE583
:1014C00090E0FC0180818E8BF8948D859E85FC01D7
:1014D0008081982F8C8180958923282F8D859E85EA
:1014E000FC0120838B899C89FC0190818C81292FB0
:1014F000282B8B899C89FC0120838FE590E02E8925
:10150000FC01208318C08FE590E0FC0180818D8B69
:10151000F8948D859E85FC0190818C81292F282B44
:101520008D859E85FC0120838FE590E02D89FC014F
:10153000208301C0000069960FB6F894DEBF0FBE8D
:10154000CDBFDF91CF910895CF93DF931F92CDB799
:10155000DEB789838981882F90E08330910591F0EF
:101560008430910534F48130910501F1029741F105
:1015700045C08730910571F188309105A9F1049734
:1015800059F03CC080E890E0FC01208180E890E0C8
:101590002F77FC01208332C080E890E0FC0120819D
:1015A00080E890E02F7DFC01208328C084E490E057
:1015B000FC01208184E490E02F77FC0120831EC091
:1015C00084E490E0FC01208184E490E02F7DFC0124
:1015D000208314C080EB90E0FC01208180EB90E040
:1015E0002F77FC0120830AC080EB90E0FC01208172
:1015F00080EB90E02F7DFC012083000000000F9025
:10160000DF91CF910895CF93DF93CDB7DEB7659784
:101610000FB6F894DEBF0FBECDBF8C8B6D8B8C895F
:10162000882F90E08C559F4F9A83898389819A8176
:10163000FC0184918B838B818C838C89882F90E033
:1016400080579F4F9E838D838D819E81FC01849165
:101650008F838F8188878C89882F90E084589F4F53
:101660009A87898789859A85FC0184918B878B85E8
:101670008C878C85882309F444C08C81882311F0E1
:101680008C8162DF8C85882F90E0880F991F8E589F
:101690009F4F9E878D878D859E85FC012591349176
:1016A000CF01388B2F879E878D878F8598899A8B5E
:1016B000898B8FE590E0FC0180818B8BF8948D897C
:1016C000882371F489899A89FC018081982F888503
:1016D00080958923282F89899A89FC0120830BC052
:1016E00089899A89FC0190818885292F282B8989ED
:1016F0009A89FC0120838FE590E02B89FC012083EF
:1017000001C0000065960FB6F894DEBF0FBECDBFD6
:10171000DF91CF910895CF93DF93CDB7DEB70E94CD
:101720004F17CF93DF93CDB7DEB7F89481E0DF9109
:10173000CF910895CF93DF9300D0CDB7DEB79A83D2
:1017400089838FE590E029813A81F9012081FC01AC
:10175000208300000F900F90DF91CF910895CF93D9
:10176000DF9300D01F92CDB7DEB79B838A838A8137
:101770009B81FC01848D882F90E02A813B81820F20
:10178000931F835A9F4FFC01808189838A819B81AB
:10179000FC01848D882F90E001968F7390789923B7
:1017A00024F40197806C9F6F0196282F8A819B817A
:1017B000FC01248F8A819B81FC018689978929817C
:1017C000FC0120838A819B81FC0180899189FC0135
:1017D00080818370282F20648A819B81FC0180890D
:1017E0009189FC0120838A819B81FC01238D8A8160
:1017F0009B81FC01948D81E0291709F080E088230A
:1018000079F08A819B81FC0182899389FC01208186
:101810008A819B81FC01828993892F7DFC01208331
:1018200000000F900F900F90DF91CF910895CF930C
:10183000DF93CDB7DEB729970FB6F894DEBF0FBEA2
:10184000CDBF9C838B834D835E836F83788729878D
:1018500080E099E0ADE3B0E02D813E814F81588575
:10186000BC01CD010E942717DA01C9010197A10926
:10187000B109B695A795979587959A8389838B81AA
:101880009C81FC018089918922E0FC0120838D816B
:101890009E81AF81B8858115914EA105B10529F0D2
:1018A00089819A8181159041F0F08B819C81FC01A6
:1018B00080899189FC01108280E894E8AEE1B0E073
:1018C0002D813E814F815885BC01CD010E94271793
:1018D000DA01C9010197A109B109B695A7959795B4
:1018E00087959A83898389819A81292F33278B81D0
:1018F0009C81FC0184859585FC0120838B819C81E2
:10190000FC01868597852981FC0120838B819C8140
:10191000FC01108E8B819C81FC018489958929852D
:10192000FC0120838B819C81FC0182899389FC01CD
:1019300020818B819C81FC01828993892061FC013B
:1019400020838B819C81FC0182899389FC01208109
:101950008B819C81FC01828993892860FC01208312
:101960008B819C81FC0182899389FC0120818B8180
:101970009C81FC01828993892068FC0120838B81F2
:101980009C81FC0182899389FC0120818B819C814F
:10199000FC01828993892F7DFC0120830000299618
:1019A0000FB6F894DEBF0FBECDBFDF91CF91089583
:1019B000CF93DF9300D0CDB7DEB79A838983898137
:1019C0009A81FC01818D882F90E09C01205C3F4F23
:1019D00089819A81FC01828D882F90E0A901481BA2
:1019E000590BCA018F7399270F900F90DF91CF91F8
:1019F0000895CF93DF9300D0CDB7DEB79A83898364
:101A000089819A81FC01218D89819A81FC01928DC5
:101A100081E0291709F080E0882319F08FEF9FEF0C
:101A20000FC089819A81FC01828D882F90E02981E5
:101A30003A81820F931F4D96FC018081882F90E0A0
:101A40000F900F90DF91CF910895CF93DF9300D047
:101A50001F92CDB7DEB79B838A838A819B81FC016D
:101A6000218D8A819B81FC01928D81E0291709F0EB
:101A700080E0882319F08FEF9FEF1CC08A819B8143
:101A8000FC01828D882F90E02A813B81820F931F79
:101A90004D96FC01808189838A819B81FC01828D26
:101AA0008F5F282F2F738A819B81FC01228F898170
:101AB000882F90E00F900F900F90DF91CF910895B5
:101AC000CF93DF9300D000D0CDB7DEB79C838B835C
:101AD0008B819C81FC01838D89838B819C81FC019E
:101AE000848D8A8399818A81981768F08981882FEB
:101AF00090E02FE330E0281B390B8A81882F90E09B
:101B0000820F931F0BC08A81282F30E08981882F94
:101B100090E0A901481B590BCA0101970F900F9043
:101B20000F900F90DF91CF910895CF93DF9300D066
:101B3000CDB7DEB79A83898389819A81FC01908D24
:101B400081E08927882309F04DC089819A81FC01B1
:101B500082899389FC018081882F90E08072992787
:101B6000892B69F489819A81FC0180899189FC0122
:101B70008081882F90E080749927892B11F481E06F
:101B800001C080E0882379F18FE590E0FC0180813D
:101B900088237CF089819A81FC0182899389FC01E8
:101BA0008081882F90E080729927892B11F081E045
:101BB00001C080E0882349F289819A81FC018089F3
:101BC0009189FC018081882F90E08072992721E023
:101BD000892B09F420E0222309F4B7CF89819A8167
:101BE000BEDDB3CF00000F900F90DF91CF9108952D
:101BF000CF93DF93CDB7DEB728970FB6F894DEBF4B
:101C00000FBECDBF9F838E8368878E819F8121E029
:101C1000FC01208F8E819F81FC01238D8E819F810D
:101C2000FC01848D281779F48E819F81FC018089C5
:101C30009189FC018081882F90E080729927892BFF
:101C400011F081E001C080E0882359F18FE590E038
:101C5000FC0180818C8365DD898389818823D9F0AB
:101C60008E819F81FC01868997892885FC012083CC
:101C70008E819F81FC0180899189FC018081837024
:101C8000282F20648E819F81FC0180899189FC012D
:101C900020831982E2CFCE0104964CDD81E090E0F2
:101CA0006EC08E819F81FC01838D882F90E001960C
:101CB0008F739078992324F40197806C9F6F01961D
:101CC0008B838E819F81FC01948D81E02B8129176C
:101CD00009F080E08823F9F08FE590E0FC01808135
:101CE0008095881F8827881F882359F38E819F81BC
:101CF000FC0180899189FC018081882F90E08072AD
:101D0000992721E0892B09F420E02223D1F28E814A
:101D10009F8125DDD6CF8E819F81FC01838D882F09
:101D200090E02E813F81820F931F835A9F4F288519
:101D3000FC0120838FE590E0FC0180818D83F1DC44
:101D40008A838A818823B1F08E819F812B81FC0157
:101D5000238F8E819F81FC0182899389FC012081E0
:101D60008E819F81FC01828993892062FC012083FE
:101D70001A82E7CFCE010596DDDC81E090E028965F
:101D80000FB6F894DEBF0FBECDBFDF91CF9108959F
:101D9000CF93DF9300D0CDB7DEB79A83898324E455
:101DA00031E089819A81FC013183208389819A8184
:101DB000FC011382128200000F900F90DF91CF91EF
:101DC0000895CF93DF9300D0CDB7DEB79A83898390
:101DD00080E090E00F900F90DF91CF910895CF9326
:101DE000DF9300D0CDB7DEB79A83898300000F90D0
:101DF0000F90DF91CF910895CF93DF9300D0CDB7AF
:101E0000DEB79A83898389819A81C2DF26E231E035
:101E100089819A81FC013183208329813A8188EE6E
:101E200093E0A0E0B0E0F90184839583A683B783B3
:101E300000000F900F90DF91CF910895CF92DF9225
:101E4000EF92FF920F931F93CF93DF93CDB7DEB73F
:101E50002E970FB6F894DEBF0FBECDBF9A8389834D
:101E60007C836B835E834D8338872F831A87098732
:101E7000FC86EB86DE86CD8689819A81BDDF24E1F2
:101E800031E089819A81FC013183208389819A81A3
:101E90002B813C81FC013587248789819A812D81A2
:101EA0003E81FC013787268789819A812F81388579
:101EB000FC01318B208B89819A8129853A85FC012F
:101EC000338B228B89819A812B853C85FC01358B54
:101ED000248B89819A812D853E85FC01378B268B49
:101EE00089819A81FC01118E89819A81FC01128E6F
:101EF00089819A81FC01138E89819A81FC01148E5B
:101F000000002E960FB6F894DEBF0FBECDBFDF9156
:101F1000CF911F910F91FF90EF90DF90CF90089598
:101F2000CF93DF9300D000D0CDB7DEB79C838B83F7
:101F30008B819C81FC0180899189FC018081882FA3
:101F400090E08470992721E0892B09F020E022237A
:101F500071F18B819C81FC0186899789FC018081CC
:101F600089838B819C81FC01818D8F5F8F738A8334
:101F70008B819C81FC01928D81E02A81291709F4D3
:101F800080E08823D9F08B819C81FC01818D882F92
:101F900090E02B813C81820F931F4D962981FC019B
:101FA00020838B819C812A81FC01218F07C08B813A
:101FB0009C81FC0186899789FC01808100000F903B
:101FC0000F900F900F90DF91CF9108951F920F9275
:101FD0000FB60F9211242F933F934F935F936F93FC
:101FE0007F938F939F93AF93BF93EF93FF93CF9381
:101FF000DF93CDB7DEB787E691E092DF0000DF9197
:10200000CF91FF91EF91BF91AF919F918F917F9170
:102010006F915F914F913F912F910F900FBE0F9055
:102020001F9018951F920F920FB60F9211242F93A5
:102030003F934F935F936F937F938F939F93AF9350
:10204000BF93EF93FF93CF93DF93CDB7DEB787E6D0
:1020500091E085DB0000DF91CF91FF91EF91BF917F
:10206000AF919F918F917F916F915F914F913F9130
:102070002F910F900FBE0F901F901895CF92DF9267
:10208000EF92FF920F931F93CF93DF9300D000D076
:10209000CDB7DEB79A8389837C836B8389819A81EC
:1020A0000197C9F48B819C810196A9F40F2EF6EC5F
:1020B000CF2ED12CF02D0F2EF2ECEF2EF12CF02D97
:1020C00001EC10E020EC30E044EC50E065EC70E016
:1020D00087E691E0B3DE00000F900F900F900F9015
:1020E000DF91CF911F910F91FF90EF90DF90CF90F4
:1020F0000895CF93DF93CDB7DEB76FEF7FEF81E029
:1021000090E0BCDFDF91CF910895CF93DF9300D0B3
:10211000CDB7DEB79A8389832EE331E089819A8136
:10212000FC013183208300000F900F90DF91CF914D
:1021300008950F93CF93DF9300D000D000D0CDB798
:10214000DEB79A8389836B834C832D830E838981C9
:102150009A81DBDF28E331E089819A81FC013183B8
:10216000208389819A812B81FC01228389819A8134
:102170002C81FC01238389819A812D81FC01248398
:1021800089819A812E81FC012583000026960FB655
:10219000F894DEBF0FBECDBFDF91CF910F910895B0
:1021A000CF93DF93CDB7DEB728970FB6F894DEBF95
:1021B0000FBECDBF9E838D8378876F831A8219826D
:1021C0001C821B828B819C8103973CF52D813E8173
:1021D0008B819C81820F931F0296FC0120818F814D
:1021E00098854AE050E0622FFDD09C0189819A8158
:1021F000820F931F9A8389838F8198856EE2D5D051
:102200009C0189819A81820F931F9A8389838B8194
:102210009C8101969C838B83D5CF8D819E81FC010F
:1022200025818F8198854AE050E0622FDBD09C01A8
:1022300089819A81820F931F9A83898389819A81E8
:1022400028960FB6F894DEBF0FBECDBFDF91CF91B9
:1022500008950F93CF93DF9300D000D0CDB7DEB7B2
:102260009A8389837C836B8389819A81019759F44E
:102270008B819C81019639F400E020E040E060E031
:1022800084E092E056DF00000F900F900F900F90C7
:10229000DF91CF910F910895CF93DF93CDB7DEB744
:1022A0006FEF7FEF81E090E0D4DFDF91CF91089571
:1022B0000F931F93CF93DF9300D000D0CDB7DEB73D
:1022C0009A8389837C836B838B819C81892B19F40E
:1022D00080E090E014C089819A81FC018081918125
:1022E0000296FC01008111818B819C81E3D5AC01B8
:1022F0002B813C8189819A81B901F80109950F9060
:102300000F900F900F90DF91CF911F910F91089533
:10231000CF93DF93CDB7DEB728970FB6F894DEBF23
:102320000FBECDBF9C838B837E836D8358874F8385
:102330001A8219828F8198859C0121503109388732
:102340002F8321E0892B09F420E0222319F18B81CE
:102350009C81FC0180819181FC01208131818D81F2
:102360009E81AC014F5F5F4F5E834D83FC014081D6
:102370008B819C81642FF901099521E0892B09F457
:1023800020E0222331F089819A8101969A83898302
:10239000D1CF000089819A8128960FB6F894DEBFCC
:1023A0000FBECDBFDF91CF910895CF93DF9300D0C3
:1023B0001F92CDB7DEB79A8389836B8389819A8117
:1023C000FC0180819181FC01208131814B818981D7
:1023D0009A81642FF90109950F900F900F90DF916A
:1023E000CF910895CF93DF9300D000D01F92CDB747
:1023F000DEB79A8389836B835D834C838B81882FBF
:1024000090E0A0E0B0E02C813D81E981FA81AC014F
:10241000BD01CF0108D00F900F900F900F900F903B
:10242000DF91CF910895CF93DF93CDB7DEB7289793
:102430000FB6F894DEBF0FBECDBF9A8389834B835E
:102440005C836D837E8338872F838F819885892B6A
:1024500079F489819A81FC0180819181FC0120813C
:1024600031814B8189819A81642FF90109950BC0D3
:102470002F818B819C81AD81BE81E981FA81AC0184
:10248000BD01CF0109D028960FB6F894DEBF0FBE6C
:10249000CDBFDF91CF910895CF93DF93CDB7DEB756
:1024A000AB970FB6F894DEBF0FBECDBF9EA38DA332
:1024B0004FA358A769A77AA72BA7CE0104968096A9
:1024C0009A83898389819A81FC0110828BA582304D
:1024D00010F48AE08BA78BA5282F30E040E050E075
:1024E0008FA198A5A9A5BAA5BC01CD01B0D4DC01E6
:1024F000CB018B838BA5282F30E040E050E08FA1EB
:1025000098A5A9A5BAA5BC01CD01A1D4DA01C9013C
:102510008FA398A7A9A7BAA78B818A3024F48B81AF
:10252000805D282F03C08B81895C282F89819A8147
:1025300001979A83898389819A81FC0120838FA1E5
:1025400098A5A9A5BAA5892B8A2B8B2B09F0C3CFF7
:1025500029813A818DA19EA1B901AADEAB960FB661
:10256000F894DEBF0FBECDBFDF91CF910895CF931A
:10257000DF931F92CDB7DEB789838981882F90E0E2
:102580008130910559F08230910591F0892B09F045
:102590002DC08EE690E0FC01108228C08FE690E00E
:1025A000FC0120818FE690E02D7FFC0120831EC07E
:1025B00080E790E0FC01208180E790E02D7FFC0126
:1025C000208380EB90E021E0FC01208381EB90E010
:1025D000FC018081887F282F246081EB90E0FC0142
:1025E000208383EB90E0FC011082000000000F903C
:1025F000DF91CF910895CF93DF9300D000D000D02A
:102600001F92CDB7DEB78F838FEF89831B821A822B
:102610008A819B811816190624F18A819B81835F28
:102620009E4FFC0180819F819817A9F48A819B812C
:1026300088549F4F9D838C838C819D81FC01849164
:102640008E838E8189838A819B81835F9E4F2FEF4A
:10265000FC01208306C08A819B8101969B838A832B
:10266000D7CF898184DF60E08F810E94030B000057
:1026700027960FB6F894DEBF0FBECDBFDF91CF9186
:1026800008951F920F920FB60F9211242F933F932C
:102690004F935F936F937F938F939F93AF93BF936A
:1026A000EF93FF93CF93DF93CDB7DEB780910A020C
:1026B00090910B02A0910C02B0910D0221E0892BA8
:1026C0008A2B8B2B09F420E02223A1F130911002F8
:1026D00080910E0290910F02FC01208180910E02E8
:1026E00090910F022327FC01208380910A02909190
:1026F0000B02A0910C02B0910D0221E018161906F0
:102700001A061B060CF020E02223B9F080910A0281
:1027100090910B02A0910C02B0910D020197A109BA
:10272000B10980930A0290930B02A0930C02B0931C
:102730000D0203C080910D015EDF0000DF91CF919B
:10274000FF91EF91BF91AF919F918F917F916F9189
:102750005F914F913F912F910F900FBE0F901F905F
:102760001895CF93DF93CDB7DEB740E855E260E030
:1027700070E080E090E026D00000DF91CF910895D6
:10278000CF93DF9300D000D000D0CDB7DEB79A83CF
:1027900089834B835C836D837E838B819C81AD8138
:1027A000BE81E981FA8126E0AC01BD01CF013FD8AD
:1027B000000026960FB6F894DEBF0FBECDBFDF91A6
:1027C000CF910895CF93DF9300D000D000D0CDB744
:1027D000DEB79A8389834B835C836D837E838B8191
:1027E0009C81AD81BE81AC01BD0187E691E0C8DF6F
:1027F000000026960FB6F894DEBF0FBECDBFDF9166
:10280000CF910895CF93DF93CDB7DEB70000DF916E
:10281000CF910895EF92FF920F931F93CF93DF9381
:1028200000D000D01F92CDB7DEB719820E94E20718
:10283000DC01CB018093150290931602A09317023E
:10284000B0931802209115023091160240911702A0
:10285000509118028091110290911202A0911302DE
:10286000B091140279018A01E81AF90A0A0B1B0BCC
:10287000D801C701803A9648A140B10508F43DC08F
:102880008091150290911602A0911702B091180242
:102890008093110290931202A0931302B09314023A
:1028A0003BD00E94E207DC01CB018A839B83AC838F
:1028B000BD838091110290911202A0911302B091F8
:1028C00014022A813B814C815D8179018A01E81AD9
:1028D000F90A0A0B1B0BD801C701803A9648A140A0
:1028E000B10538F081E090E090931A0280931902CC
:1028F00004C010921A021092190281E08983898122
:102900000F900F900F900F900F90DF91CF911F912C
:102910000F91FF90EF900895CF93DF93CDB7DEB77F
:1029200080911B0291E0980F90931B02882361F025
:1029300081E090E090931A028093190280911B022B
:10294000815080931B0207C00E94490580911B02A1
:10295000815080931B02DF91CF910895CF93DF9335
:10296000CDB7DEB728970FB6F894DEBF0FBECDBF48
:102970008DEC9CECACECBDE389839A83AB83BC8388
:102980001D821E821F82188610921C0210921D0248
:102990000E944108E6DE80910E0190910F01FC013A
:1029A000118210820E941F062DDF80910E019091EE
:1029B0000F01FC018081918121E0892B09F020E049
:1029C000822F80931D02789417C080910E01909100
:1029D0000F01FC018081918121E0892B09F420E025
:1029E000822F80931C0290911C0281E0992309F0B0
:1029F00080E080931D020EDF80911D02882329F75D
:102A00000E94FD06F89480E090E028960FB6F894B6
:102A1000DEBF0FBECDBFDF91CF9108955058BB27C9
:102A2000AA270ED05CC14DD130F052D120F031F444
:102A30009F3F11F41EF442C10EF4E095E7FB0FC175
:102A4000E92F5ED180F3BA176207730784079507F1
:102A500018F071F49EF58DC10EF4E0950B2EBA2F8F
:102A6000A02D0B01B90190010C01CA01A001112494
:102A7000FF27591B99F0593F50F4503E68F11A1640
:102A8000F040A22F232F342F4427585FF3CF4695D1
:102A900037952795A795F0405395C9F77EF41F16F3
:102AA000BA0B620B730B840BBAF09150A1F0FF0FBD
:102AB000BB1F661F771F881FC2F70EC0BA0F621FA9
:102AC000731F841F48F4879577956795B795F79599
:102AD0009E3F08F0B3CF9395880F08F09927EE0F2B
:102AE0009795879508952ED180F09F3740F49111E6
:102AF0000EF440C160E070E080E89FE3089526F0A6
:102B00001B16611D711D811DB0C0CAC084D008F4A0
:102B100081E0089504D06894B1112CC10895F8D0D3
:102B200088F09F5790F0B92F9927B751A0F0D1F0B6
:102B3000660F771F881F991F1AF0BA95C9F712C040
:102B4000B13081F016D1B1E0089513C1672F782F0D
:102B50008827B85F39F0B93FCCF3869577956795AC
:102B6000B395D9F73EF490958095709561957F4F18
:102B70008F4F9F4F0895E89409C097FB3EF49095BE
:102B80008095709561957F4F8F4F9F4F9923A9F046
:102B9000F92F96E9BB279395F695879577956795D5
:102BA000B795F111F8CFFAF4BB0F11F460FF1BC019
:102BB0006F5F7F4F8F4F9F4F16C0882311F096E9AC
:102BC00011C0772321F09EE8872F762F05C066235A
:102BD00071F096E8862F70E060E02AF09A95660F13
:102BE000771F881FDAF7880F9695879597F90895CC
:102BF000A9D080F09F3740F491110EF0BBC060E087
:102C000070E080E89FEB089526F41B16611D711D8E
:102C1000811D2BC045C0990F0008550FAA0BE0E895
:102C2000FEEF16161706E807F907C0F0121613068E
:102C3000E407F50798F0621B730B840B950B39F4CE
:102C40000A2661F0232B242B252B21F408950A2634
:102C500009F4A140A6958FEF811D811D089597F974
:102C60009F6780E870E060E00895882371F477231F
:102C700021F09850872B762F07C0662311F49927EF
:102C80000DC09051862B70E060E02AF09A95660F97
:102C9000771F881FDAF7880F9695879597F908951B
:102CA0009F3F31F0915020F4879577956795B795C0
:102CB000880F911D9695879597F908959FEF80EC61
:102CC000089500240A941616170618060906089592
:102CD00000240A9412161306140605060895092EF8
:102CE0000394000C11F4882352F0BB0F40F4BF2B67
:102CF00011F460FF04C06F5F7F4F8F4F9F4F0895A7
:102D000057FD9058440F551F59F05F3F71F047959C
:102D1000880F97FB991F61F09F3F79F08795089581
:102D2000121613061406551FF2CF4695F1DF08C0A0
:102D3000161617061806991FF1CF869571056105BD
:102D400008940895E5DFA0F0BEE7B91788F4BB2723
:102D50009F3860F41616B11D672F782F8827985F6B
:102D6000F7CF869577956795B11D93959639C8F3FA
:102D70000895E894BB2766277727CB0197F9089534
:102D80004ADF08F48FEF08950BD0A9CF9ADF28F01F
:102D90009FDF18F0952309F062CF90CF1124EACF7E
:102DA000AFDFA0F3959FD1F3950F50E0551F629FC1
:102DB000F001729FBB27F00DB11D639FAA27F00D94
:102DC000B11DAA1F649F6627B00DA11D661F829FBB
:102DD0002227B00DA11D621F739FB00DA11D621FA0
:102DE000839FA00D611D221F749F3327A00D611DBD
:102DF000231F849F600D211D822F762F6A2F11249F
:102E00009F5750408AF0E1F088234AF0EE0FFF1FF1
:102E1000BB1F661F771F881F91505040A9F79E3F28
:102E2000510570F01CCFA6CF5F3FECF3983EDCF36A
:102E3000869577956795B795F795E7959F5FC1F765
:102E4000FE2B880F911D9695879597F90895A1E21D
:102E50001A2EAA1BBB1BFD010DC0AA1FBB1FEE1F14
:102E6000FF1FA217B307E407F50720F0A21BB30B5F
:102E7000E40BF50B661F771F881F991F1A9469F7DB
:102E800060957095809590959B01AC01BD01CF0137
:102E90000895EE0FFF1F0590F491E02D099481E055
:102EA00090E0F89410C0DC0101C06D934150504097
:102EB000E0F70895FC0101900020E9F780959095D6
:0A2EC0008E0F9F1F0895F894FFCFB6
:102ECA00CDCCCC3D0000A0400B070B0701FFC1028F
:102EDA0000000000F80D8811600D950DD80C250D25
:102EEA00F90C000000008B0B8811E10EEF0E8B0B22
:102EFA008B0B8B0B00000000D010000000008B0B26
:0C2F0A00000000008B0B8811E10EEF0EA0
:00000001FF
